{
  "contractName": "Celebrium",
  "abi": [
    {
      "inputs": [
        {
          "internalType": "string",
          "name": "baseURI",
          "type": "string"
        }
      ],
      "stateMutability": "nonpayable",
      "type": "constructor"
    },
    {
      "anonymous": false,
      "inputs": [
        {
          "indexed": true,
          "internalType": "address",
          "name": "owner",
          "type": "address"
        },
        {
          "indexed": true,
          "internalType": "address",
          "name": "approved",
          "type": "address"
        },
        {
          "indexed": true,
          "internalType": "uint256",
          "name": "tokenId",
          "type": "uint256"
        }
      ],
      "name": "Approval",
      "type": "event"
    },
    {
      "anonymous": false,
      "inputs": [
        {
          "indexed": true,
          "internalType": "address",
          "name": "owner",
          "type": "address"
        },
        {
          "indexed": true,
          "internalType": "address",
          "name": "operator",
          "type": "address"
        },
        {
          "indexed": false,
          "internalType": "bool",
          "name": "approved",
          "type": "bool"
        }
      ],
      "name": "ApprovalForAll",
      "type": "event"
    },
    {
      "anonymous": false,
      "inputs": [
        {
          "indexed": false,
          "internalType": "uint256",
          "name": "tokenId",
          "type": "uint256"
        },
        {
          "indexed": false,
          "internalType": "address",
          "name": "sender",
          "type": "address"
        }
      ],
      "name": "AssetMinted",
      "type": "event"
    },
    {
      "anonymous": false,
      "inputs": [
        {
          "indexed": true,
          "internalType": "address",
          "name": "previousOwner",
          "type": "address"
        },
        {
          "indexed": true,
          "internalType": "address",
          "name": "newOwner",
          "type": "address"
        }
      ],
      "name": "OwnershipTransferred",
      "type": "event"
    },
    {
      "anonymous": false,
      "inputs": [
        {
          "indexed": false,
          "internalType": "bool",
          "name": "isMintActive",
          "type": "bool"
        }
      ],
      "name": "SaleActivation",
      "type": "event"
    },
    {
      "anonymous": false,
      "inputs": [
        {
          "indexed": true,
          "internalType": "address",
          "name": "from",
          "type": "address"
        },
        {
          "indexed": true,
          "internalType": "address",
          "name": "to",
          "type": "address"
        },
        {
          "indexed": true,
          "internalType": "uint256",
          "name": "tokenId",
          "type": "uint256"
        }
      ],
      "name": "Transfer",
      "type": "event"
    },
    {
      "inputs": [],
      "name": "allowListMaxMint",
      "outputs": [
        {
          "internalType": "uint256",
          "name": "",
          "type": "uint256"
        }
      ],
      "stateMutability": "view",
      "type": "function"
    },
    {
      "inputs": [
        {
          "internalType": "address",
          "name": "to",
          "type": "address"
        },
        {
          "internalType": "uint256",
          "name": "tokenId",
          "type": "uint256"
        }
      ],
      "name": "approve",
      "outputs": [],
      "stateMutability": "nonpayable",
      "type": "function"
    },
    {
      "inputs": [
        {
          "internalType": "address",
          "name": "owner",
          "type": "address"
        }
      ],
      "name": "balanceOf",
      "outputs": [
        {
          "internalType": "uint256",
          "name": "",
          "type": "uint256"
        }
      ],
      "stateMutability": "view",
      "type": "function"
    },
    {
      "inputs": [
        {
          "internalType": "uint256",
          "name": "tokenId",
          "type": "uint256"
        }
      ],
      "name": "getApproved",
      "outputs": [
        {
          "internalType": "address",
          "name": "",
          "type": "address"
        }
      ],
      "stateMutability": "view",
      "type": "function"
    },
    {
      "inputs": [
        {
          "internalType": "address",
          "name": "owner",
          "type": "address"
        },
        {
          "internalType": "address",
          "name": "operator",
          "type": "address"
        }
      ],
      "name": "isApprovedForAll",
      "outputs": [
        {
          "internalType": "bool",
          "name": "",
          "type": "bool"
        }
      ],
      "stateMutability": "view",
      "type": "function"
    },
    {
      "inputs": [],
      "name": "isClosedMintForever",
      "outputs": [
        {
          "internalType": "bool",
          "name": "",
          "type": "bool"
        }
      ],
      "stateMutability": "view",
      "type": "function"
    },
    {
      "inputs": [],
      "name": "isMintActive",
      "outputs": [
        {
          "internalType": "bool",
          "name": "",
          "type": "bool"
        }
      ],
      "stateMutability": "view",
      "type": "function"
    },
    {
      "inputs": [],
      "name": "isPreSaleMintActive",
      "outputs": [
        {
          "internalType": "bool",
          "name": "",
          "type": "bool"
        }
      ],
      "stateMutability": "view",
      "type": "function"
    },
    {
      "inputs": [],
      "name": "maximumAllowedTokensPerPurchase",
      "outputs": [
        {
          "internalType": "uint256",
          "name": "",
          "type": "uint256"
        }
      ],
      "stateMutability": "view",
      "type": "function"
    },
    {
      "inputs": [],
      "name": "maximumAllowedTokensPerWallet",
      "outputs": [
        {
          "internalType": "uint256",
          "name": "",
          "type": "uint256"
        }
      ],
      "stateMutability": "view",
      "type": "function"
    },
    {
      "inputs": [],
      "name": "maximumMintSupply",
      "outputs": [
        {
          "internalType": "uint256",
          "name": "",
          "type": "uint256"
        }
      ],
      "stateMutability": "view",
      "type": "function"
    },
    {
      "inputs": [],
      "name": "mintBreakPoint",
      "outputs": [
        {
          "internalType": "uint256",
          "name": "",
          "type": "uint256"
        }
      ],
      "stateMutability": "view",
      "type": "function"
    },
    {
      "inputs": [],
      "name": "mintPrice",
      "outputs": [
        {
          "internalType": "uint256",
          "name": "",
          "type": "uint256"
        }
      ],
      "stateMutability": "view",
      "type": "function"
    },
    {
      "inputs": [],
      "name": "name",
      "outputs": [
        {
          "internalType": "string",
          "name": "",
          "type": "string"
        }
      ],
      "stateMutability": "view",
      "type": "function"
    },
    {
      "inputs": [],
      "name": "owner",
      "outputs": [
        {
          "internalType": "address",
          "name": "",
          "type": "address"
        }
      ],
      "stateMutability": "view",
      "type": "function"
    },
    {
      "inputs": [
        {
          "internalType": "uint256",
          "name": "tokenId",
          "type": "uint256"
        }
      ],
      "name": "ownerOf",
      "outputs": [
        {
          "internalType": "address",
          "name": "",
          "type": "address"
        }
      ],
      "stateMutability": "view",
      "type": "function"
    },
    {
      "inputs": [],
      "name": "preSaleMintPrice",
      "outputs": [
        {
          "internalType": "uint256",
          "name": "",
          "type": "uint256"
        }
      ],
      "stateMutability": "view",
      "type": "function"
    },
    {
      "inputs": [],
      "name": "renounceOwnership",
      "outputs": [],
      "stateMutability": "nonpayable",
      "type": "function"
    },
    {
      "inputs": [
        {
          "internalType": "address",
          "name": "from",
          "type": "address"
        },
        {
          "internalType": "address",
          "name": "to",
          "type": "address"
        },
        {
          "internalType": "uint256",
          "name": "tokenId",
          "type": "uint256"
        }
      ],
      "name": "safeTransferFrom",
      "outputs": [],
      "stateMutability": "nonpayable",
      "type": "function"
    },
    {
      "inputs": [
        {
          "internalType": "address",
          "name": "from",
          "type": "address"
        },
        {
          "internalType": "address",
          "name": "to",
          "type": "address"
        },
        {
          "internalType": "uint256",
          "name": "tokenId",
          "type": "uint256"
        },
        {
          "internalType": "bytes",
          "name": "_data",
          "type": "bytes"
        }
      ],
      "name": "safeTransferFrom",
      "outputs": [],
      "stateMutability": "nonpayable",
      "type": "function"
    },
    {
      "inputs": [
        {
          "internalType": "address",
          "name": "operator",
          "type": "address"
        },
        {
          "internalType": "bool",
          "name": "approved",
          "type": "bool"
        }
      ],
      "name": "setApprovalForAll",
      "outputs": [],
      "stateMutability": "nonpayable",
      "type": "function"
    },
    {
      "inputs": [
        {
          "internalType": "bytes4",
          "name": "interfaceId",
          "type": "bytes4"
        }
      ],
      "name": "supportsInterface",
      "outputs": [
        {
          "internalType": "bool",
          "name": "",
          "type": "bool"
        }
      ],
      "stateMutability": "view",
      "type": "function"
    },
    {
      "inputs": [],
      "name": "symbol",
      "outputs": [
        {
          "internalType": "string",
          "name": "",
          "type": "string"
        }
      ],
      "stateMutability": "view",
      "type": "function"
    },
    {
      "inputs": [
        {
          "internalType": "uint256",
          "name": "index",
          "type": "uint256"
        }
      ],
      "name": "tokenByIndex",
      "outputs": [
        {
          "internalType": "uint256",
          "name": "",
          "type": "uint256"
        }
      ],
      "stateMutability": "view",
      "type": "function"
    },
    {
      "inputs": [
        {
          "internalType": "address",
          "name": "owner",
          "type": "address"
        },
        {
          "internalType": "uint256",
          "name": "index",
          "type": "uint256"
        }
      ],
      "name": "tokenOfOwnerByIndex",
      "outputs": [
        {
          "internalType": "uint256",
          "name": "",
          "type": "uint256"
        }
      ],
      "stateMutability": "view",
      "type": "function"
    },
    {
      "inputs": [
        {
          "internalType": "uint256",
          "name": "tokenId",
          "type": "uint256"
        }
      ],
      "name": "tokenURI",
      "outputs": [
        {
          "internalType": "string",
          "name": "",
          "type": "string"
        }
      ],
      "stateMutability": "view",
      "type": "function"
    },
    {
      "inputs": [],
      "name": "totalSupply",
      "outputs": [
        {
          "internalType": "uint256",
          "name": "",
          "type": "uint256"
        }
      ],
      "stateMutability": "view",
      "type": "function"
    },
    {
      "inputs": [
        {
          "internalType": "address",
          "name": "from",
          "type": "address"
        },
        {
          "internalType": "address",
          "name": "to",
          "type": "address"
        },
        {
          "internalType": "uint256",
          "name": "tokenId",
          "type": "uint256"
        }
      ],
      "name": "transferFrom",
      "outputs": [],
      "stateMutability": "nonpayable",
      "type": "function"
    },
    {
      "inputs": [
        {
          "internalType": "address",
          "name": "newOwner",
          "type": "address"
        }
      ],
      "name": "transferOwnership",
      "outputs": [],
      "stateMutability": "nonpayable",
      "type": "function"
    },
    {
      "inputs": [
        {
          "internalType": "uint256",
          "name": "_count",
          "type": "uint256"
        }
      ],
      "name": "setMaximumAllowedTokens",
      "outputs": [],
      "stateMutability": "nonpayable",
      "type": "function"
    },
    {
      "inputs": [
        {
          "internalType": "uint256",
          "name": "_count",
          "type": "uint256"
        }
      ],
      "name": "setMaximumAllowedTokensPerWallet",
      "outputs": [],
      "stateMutability": "nonpayable",
      "type": "function"
    },
    {
      "inputs": [
        {
          "internalType": "bool",
          "name": "val",
          "type": "bool"
        }
      ],
      "name": "setMintActive",
      "outputs": [],
      "stateMutability": "nonpayable",
      "type": "function"
    },
    {
      "inputs": [
        {
          "internalType": "uint256",
          "name": "maxMintSupply",
          "type": "uint256"
        }
      ],
      "name": "setMaxMintSupply",
      "outputs": [],
      "stateMutability": "nonpayable",
      "type": "function"
    },
    {
      "inputs": [
        {
          "internalType": "bool",
          "name": "_isPreSaleMintActive",
          "type": "bool"
        }
      ],
      "name": "setIsPreSaleMintActive",
      "outputs": [],
      "stateMutability": "nonpayable",
      "type": "function"
    },
    {
      "inputs": [
        {
          "internalType": "uint256",
          "name": "maxMint",
          "type": "uint256"
        }
      ],
      "name": "setAllowListMaxMint",
      "outputs": [],
      "stateMutability": "nonpayable",
      "type": "function"
    },
    {
      "inputs": [
        {
          "internalType": "address[]",
          "name": "addresses",
          "type": "address[]"
        }
      ],
      "name": "addToAllowList",
      "outputs": [],
      "stateMutability": "nonpayable",
      "type": "function"
    },
    {
      "inputs": [
        {
          "internalType": "address",
          "name": "addr",
          "type": "address"
        }
      ],
      "name": "checkIfOnAllowList",
      "outputs": [
        {
          "internalType": "bool",
          "name": "",
          "type": "bool"
        }
      ],
      "stateMutability": "view",
      "type": "function"
    },
    {
      "inputs": [
        {
          "internalType": "address[]",
          "name": "addresses",
          "type": "address[]"
        }
      ],
      "name": "removeFromAllowList",
      "outputs": [],
      "stateMutability": "nonpayable",
      "type": "function"
    },
    {
      "inputs": [
        {
          "internalType": "address",
          "name": "owner",
          "type": "address"
        }
      ],
      "name": "allowListClaimedBy",
      "outputs": [
        {
          "internalType": "uint256",
          "name": "",
          "type": "uint256"
        }
      ],
      "stateMutability": "view",
      "type": "function"
    },
    {
      "inputs": [
        {
          "internalType": "uint256",
          "name": "val",
          "type": "uint256"
        }
      ],
      "name": "setReserveAtATime",
      "outputs": [],
      "stateMutability": "nonpayable",
      "type": "function"
    },
    {
      "inputs": [
        {
          "internalType": "uint256",
          "name": "val",
          "type": "uint256"
        }
      ],
      "name": "setMaxReserve",
      "outputs": [],
      "stateMutability": "nonpayable",
      "type": "function"
    },
    {
      "inputs": [
        {
          "internalType": "uint256",
          "name": "_price",
          "type": "uint256"
        }
      ],
      "name": "setMintPrice",
      "outputs": [],
      "stateMutability": "nonpayable",
      "type": "function"
    },
    {
      "inputs": [
        {
          "internalType": "uint256",
          "name": "_price",
          "type": "uint256"
        }
      ],
      "name": "setPreSaleMintPrice",
      "outputs": [],
      "stateMutability": "nonpayable",
      "type": "function"
    },
    {
      "inputs": [
        {
          "internalType": "string",
          "name": "baseURI",
          "type": "string"
        }
      ],
      "name": "setBaseURI",
      "outputs": [],
      "stateMutability": "nonpayable",
      "type": "function"
    },
    {
      "inputs": [],
      "name": "getMaximumAllowedTokens",
      "outputs": [
        {
          "internalType": "uint256",
          "name": "",
          "type": "uint256"
        }
      ],
      "stateMutability": "view",
      "type": "function"
    },
    {
      "inputs": [],
      "name": "getMintPrice",
      "outputs": [
        {
          "internalType": "uint256",
          "name": "",
          "type": "uint256"
        }
      ],
      "stateMutability": "view",
      "type": "function"
    },
    {
      "inputs": [],
      "name": "getPreSaleMintPrice",
      "outputs": [
        {
          "internalType": "uint256",
          "name": "",
          "type": "uint256"
        }
      ],
      "stateMutability": "view",
      "type": "function"
    },
    {
      "inputs": [],
      "name": "getIsClosedMintForever",
      "outputs": [
        {
          "internalType": "bool",
          "name": "",
          "type": "bool"
        }
      ],
      "stateMutability": "view",
      "type": "function"
    },
    {
      "inputs": [],
      "name": "setIsClosedMintForever",
      "outputs": [],
      "stateMutability": "nonpayable",
      "type": "function"
    },
    {
      "inputs": [],
      "name": "getReserveAtATime",
      "outputs": [
        {
          "internalType": "uint256",
          "name": "",
          "type": "uint256"
        }
      ],
      "stateMutability": "view",
      "type": "function"
    },
    {
      "inputs": [],
      "name": "getTotalSupply",
      "outputs": [
        {
          "internalType": "uint256",
          "name": "",
          "type": "uint256"
        }
      ],
      "stateMutability": "view",
      "type": "function"
    },
    {
      "inputs": [],
      "name": "getContractOwner",
      "outputs": [
        {
          "internalType": "address",
          "name": "",
          "type": "address"
        }
      ],
      "stateMutability": "view",
      "type": "function"
    },
    {
      "inputs": [],
      "name": "reserveNft",
      "outputs": [],
      "stateMutability": "nonpayable",
      "type": "function"
    },
    {
      "inputs": [
        {
          "internalType": "address",
          "name": "_walletAddress",
          "type": "address"
        },
        {
          "internalType": "uint256",
          "name": "_count",
          "type": "uint256"
        }
      ],
      "name": "reserveToCustomWallet",
      "outputs": [],
      "stateMutability": "nonpayable",
      "type": "function"
    },
    {
      "inputs": [
        {
          "internalType": "uint256",
          "name": "_count",
          "type": "uint256"
        }
      ],
      "name": "mint",
      "outputs": [],
      "stateMutability": "payable",
      "type": "function"
    },
    {
      "inputs": [
        {
          "internalType": "uint256",
          "name": "_count",
          "type": "uint256"
        }
      ],
      "name": "preSaleMint",
      "outputs": [],
      "stateMutability": "payable",
      "type": "function"
    },
    {
      "inputs": [
        {
          "internalType": "address",
          "name": "_owner",
          "type": "address"
        }
      ],
      "name": "walletOfOwner",
      "outputs": [
        {
          "internalType": "uint256[]",
          "name": "",
          "type": "uint256[]"
        }
      ],
      "stateMutability": "view",
      "type": "function"
    },
    {
      "inputs": [],
      "name": "withdraw",
      "outputs": [],
      "stateMutability": "nonpayable",
      "type": "function"
    }
  ],
  "bytecode": "0x6080604052680246ddf97976680000600b819055600c55608c600d556032600e8190556000600f556010556012805462ffffff191690556101f4601381905560148190556015819055601655601780546001600160a01b031990811673625b0a3f8cee1e03760d7fc10aa9336fbdcf0f8617909155601880549091167386d7a3a03f00a51fee2d54c6231ed38d9820cbe4179055348015620000a057600080fd5b50604051620037a2380380620037a2833981016040819052620000c3916200029f565b60405180606001604052806032815260200162003770603291396040518060400160405280600981526020016843454c45425249554d60b81b815250816000908051906020019062000117929190620001f9565b5080516200012d906001906020840190620001f9565b5050506200014a620001446200015c60201b60201c565b62000160565b6200015581620001b2565b50620003c8565b3390565b600a80546001600160a01b038381166001600160a01b0319831681179093556040519116919082907f8be0079c531659141344cd1fd0a4f28419497f9722a3daafe3b4186f6b6457e090600090a35050565b33620001bd620001ea565b6001600160a01b031614620001d157600080fd5b8051620001e6906011906020840190620001f9565b5050565b600a546001600160a01b031690565b828054620002079062000375565b90600052602060002090601f0160209004810192826200022b576000855562000276565b82601f106200024657805160ff191683800117855562000276565b8280016001018555821562000276579182015b828111156200027657825182559160200191906001019062000259565b506200028492915062000288565b5090565b5b8082111562000284576000815560010162000289565b60006020808385031215620002b2578182fd5b82516001600160401b0380821115620002c9578384fd5b818501915085601f830112620002dd578384fd5b815181811115620002f257620002f2620003b2565b604051601f8201601f19908116603f011681019083821181831017156200031d576200031d620003b2565b81604052828152888684870101111562000335578687fd5b8693505b8284101562000358578484018601518185018701529285019262000339565b828411156200036957868684830101525b98975050505050505050565b6002810460018216806200038a57607f821691505b60208210811415620003ac57634e487b7160e01b600052602260045260246000fd5b50919050565b634e487b7160e01b600052604160045260246000fd5b61339880620003d86000396000f3fe6080604052600436106103805760003560e01c806377b501b9116101d1578063ad06d75811610102578063e985e9c5116100a0578063f132dc291161006f578063f132dc291461096f578063f2fde38b14610984578063f4a0a528146109a4578063f6c9d9e3146109c457610380565b8063e985e9c5146108fa578063ea6eb8361461091a578063ec7d09911461093a578063ee1cc9441461094f57610380565b8063c87b56dd116100dc578063c87b56dd1461089b578063cadf8818146108bb578063e415b8b0146108d0578063e7b62d96146108e557610380565b8063ad06d75814610851578063b88d4fde14610866578063c4e41b221461088657610380565b806395d89b411161016f578063a0712d6811610149578063a0712d68146107e9578063a22cb465146107fc578063a51312c81461081c578063a7f93ebd1461083c57610380565b806395d89b41146107aa5780639a3bf728146107bf5780639ccb0fea146107d457610380565b80637d26f470116101ab5780637d26f470146107565780637f44ab2f1461076b5780638da5cb5b14610780578063932ecebc1461079557610380565b806377b501b9146107035780637835c635146107235780637a6685f11461073657610380565b8063438b6300116102b65780635b92ac0d11610254578063715018a611610223578063715018a61461069957806371e3500c146106ae5780637263cfe2146106c35780637389fbb7146106e357610380565b80635b92ac0d1461062f5780636352211e146106445780636817c76c1461066457806370a082311461067957610380565b80634dfea627116102905780634dfea627146105af5780634f6ccce7146105cf57806355f804b3146105ef57806356a87caa1461060f57610380565b8063438b630014610558578063442890d5146105855780634d0550de1461059a57610380565b806323b872dd116103235780633b9ee7e4116102fd5780633b9ee7e4146104e35780633ccfd60b146105035780633cfac5701461051857806342842e0e1461053857610380565b806323b872dd146104835780632c1205f4146104a35780632f745c59146104c357610380565b8063081812fc1161035f578063081812fc1461040a578063095ea7b31461043757806318160ddd1461045957806321a911f81461046e57610380565b806208ffdd1461038557806301ffc9a7146103bb57806306fdde03146103e8575b600080fd5b34801561039157600080fd5b506103a56103a0366004612683565b6109e4565b6040516103b291906131d2565b60405180910390f35b3480156103c757600080fd5b506103db6103d636600461285e565b610a35565b6040516103b291906129e4565b3480156103f457600080fd5b506103fd610a60565b6040516103b291906129ef565b34801561041657600080fd5b5061042a6104253660046128dc565b610af2565b6040516103b2919061294f565b34801561044357600080fd5b506104576104523660046127ac565b610b35565b005b34801561046557600080fd5b506103a5610bcd565b34801561047a57600080fd5b506103a5610bd3565b34801561048f57600080fd5b5061045761049e3660046126cf565b610bd9565b3480156104af57600080fd5b506103db6104be366004612683565b610c11565b3480156104cf57600080fd5b506103a56104de3660046127ac565b610c2f565b3480156104ef57600080fd5b506104576104fe3660046128dc565b610c81565b34801561050f57600080fd5b50610457610ca2565b34801561052457600080fd5b50610457610533366004612844565b610dba565b34801561054457600080fd5b506104576105533660046126cf565b610df0565b34801561056457600080fd5b50610578610573366004612683565b610e0b565b6040516103b291906129a0565b34801561059157600080fd5b5061042a610ec9565b3480156105a657600080fd5b506103a5610ed8565b3480156105bb57600080fd5b506104576105ca3660046128dc565b610ede565b3480156105db57600080fd5b506103a56105ea3660046128dc565b610eff565b3480156105fb57600080fd5b5061045761060a366004612896565b610f5a565b34801561061b57600080fd5b5061045761062a3660046128dc565b610f89565b34801561063b57600080fd5b506103db610faa565b34801561065057600080fd5b5061042a61065f3660046128dc565b610fb3565b34801561067057600080fd5b506103a5610fe8565b34801561068557600080fd5b506103a5610694366004612683565b610fee565b3480156106a557600080fd5b50610457611032565b3480156106ba57600080fd5b5061045761107d565b3480156106cf57600080fd5b506104576106de3660046127d5565b611140565b3480156106ef57600080fd5b506104576106fe3660046128dc565b6112fe565b34801561070f57600080fd5b5061045761071e3660046127ac565b61131f565b6104576107313660046128dc565b6113c9565b34801561074257600080fd5b506104576107513660046128dc565b6115a6565b34801561076257600080fd5b506103db6115c7565b34801561077757600080fd5b506103a56115d6565b34801561078c57600080fd5b5061042a6115dc565b3480156107a157600080fd5b506104576115eb565b3480156107b657600080fd5b506103fd61161a565b3480156107cb57600080fd5b506103a5611629565b3480156107e057600080fd5b506103db61162f565b6104576107f73660046128dc565b61163d565b34801561080857600080fd5b50610457610817366004612783565b6117eb565b34801561082857600080fd5b506104576108373660046127d5565b6117fd565b34801561084857600080fd5b506103a56118f7565b34801561085d57600080fd5b506103a56118fd565b34801561087257600080fd5b5061045761088136600461270a565b611922565b34801561089257600080fd5b506103a561195b565b3480156108a757600080fd5b506103fd6108b63660046128dc565b611965565b3480156108c757600080fd5b506103a56119e8565b3480156108dc57600080fd5b506103a56119ee565b3480156108f157600080fd5b506103a56119f4565b34801561090657600080fd5b506103db61091536600461269d565b6119fa565b34801561092657600080fd5b506104576109353660046128dc565b611a28565b34801561094657600080fd5b506103a5611a49565b34801561095b57600080fd5b5061045761096a366004612844565b611a4f565b34801561097b57600080fd5b506103db611ab4565b34801561099057600080fd5b5061045761099f366004612683565b611ac3565b3480156109b057600080fd5b506104576109bf3660046128dc565b611b34565b3480156109d057600080fd5b506104576109df3660046128dc565b611b55565b60006001600160a01b038216610a155760405162461bcd60e51b8152600401610a0c90612f00565b60405180910390fd5b506001600160a01b0381166000908152601a60205260409020545b919050565b60006001600160e01b0319821663780e9d6360e01b1480610a5a5750610a5a82611b76565b92915050565b606060008054610a6f90613280565b80601f0160208091040260200160405190810160405280929190818152602001828054610a9b90613280565b8015610ae85780601f10610abd57610100808354040283529160200191610ae8565b820191906000526020600020905b815481529060010190602001808311610acb57829003601f168201915b5050505050905090565b6000610afd82611bb6565b610b195760405162461bcd60e51b8152600401610a0c90612e48565b506000908152600460205260409020546001600160a01b031690565b6000610b4082610fb3565b9050806001600160a01b0316836001600160a01b03161415610b745760405162461bcd60e51b8152600401610a0c90612f86565b806001600160a01b0316610b86611bd3565b6001600160a01b03161480610ba25750610ba281610915611bd3565b610bbe5760405162461bcd60e51b8152600401610a0c90612d23565b610bc88383611bd7565b505050565b60085490565b600c5490565b610bea610be4611bd3565b82611c45565b610c065760405162461bcd60e51b8152600401610a0c90612ff7565b610bc8838383611cca565b6001600160a01b031660009081526019602052604090205460ff1690565b6000610c3a83610fee565b8210610c585760405162461bcd60e51b8152600401610a0c90612aa7565b506001600160a01b03919091166000908152600660209081526040808320938352929052205490565b33610c8a6115dc565b6001600160a01b031614610c9d57600080fd5b600c55565b33610cab6115dc565b6001600160a01b031614610cbe57600080fd5b60175447906001600160a01b03166108fc612710610cde84611f4061321e565b610ce8919061320a565b6040518115909202916000818181858888f19350505050158015610d10573d6000803e3d6000fd5b506018546001600160a01b03166108fc612710610d2f846107d061321e565b610d39919061320a565b6040518115909202916000818181858888f19350505050158015610d61573d6000803e3d6000fd5b50610d6a6115dc565b6001600160a01b03166108fc612710610d8484600061321e565b610d8e919061320a565b6040518115909202916000818181858888f19350505050158015610db6573d6000803e3d6000fd5b5050565b33610dc36115dc565b6001600160a01b031614610dd657600080fd5b601280549115156101000261ff0019909216919091179055565b610bc883838360405180602001604052806000815250611922565b60606000610e1883610fee565b905060008167ffffffffffffffff811115610e4357634e487b7160e01b600052604160045260246000fd5b604051908082528060200260200182016040528015610e6c578160200160208202803683370190505b50905060005b82811015610ec157610e848582610c2f565b828281518110610ea457634e487b7160e01b600052603260045260246000fd5b602090810291909101015280610eb9816132bb565b915050610e72565b509392505050565b6000610ed36115dc565b905090565b60135481565b33610ee76115dc565b6001600160a01b031614610efa57600080fd5b601455565b6000610f09610bcd565b8210610f275760405162461bcd60e51b8152600401610a0c90613048565b60088281548110610f4857634e487b7160e01b600052603260045260246000fd5b90600052602060002001549050919050565b33610f636115dc565b6001600160a01b031614610f7657600080fd5b8051610db690601190602084019061254d565b33610f926115dc565b6001600160a01b031614610fa557600080fd5b601055565b60125460ff1681565b6000818152600260205260408120546001600160a01b031680610a5a5760405162461bcd60e51b8152600401610a0c90612dca565b600b5481565b60006001600160a01b0382166110165760405162461bcd60e51b8152600401610a0c90612d80565b506001600160a01b031660009081526003602052604090205490565b61103a611bd3565b6001600160a01b031661104b6115dc565b6001600160a01b0316146110715760405162461bcd60e51b8152600401610a0c90612ecb565b61107b6000611dfd565b565b336110866115dc565b6001600160a01b03161461109957600080fd5b601054600f5411156110bd5760405162461bcd60e51b8152600401610a0c90612a02565b60006110c7610bcd565b905060015b600e548111610db6576000805160206133438339815191526110ee82846131f2565b336040516110fd9291906131db565b60405180910390a16111183361111383856131f2565b611e4f565b600f8054906000611128836132bb565b91905055508080611138906132bb565b9150506110cc565b336111496115dc565b6001600160a01b03161461115c57600080fd5b60005b81811015610bc857600083838381811061118957634e487b7160e01b600052603260045260246000fd5b905060200201602081019061119e9190612683565b6001600160a01b031614156111c55760405162461bcd60e51b8152600401610a0c90612e94565b6001601960008585858181106111eb57634e487b7160e01b600052603260045260246000fd5b90506020020160208101906112009190612683565b6001600160a01b0316815260208101919091526040016000908120805460ff191692151592909217909155601a8185858581811061124e57634e487b7160e01b600052603260045260246000fd5b90506020020160208101906112639190612683565b6001600160a01b03166001600160a01b0316815260200190815260200160002054116112905760006112eb565b601a60008484848181106112b457634e487b7160e01b600052603260045260246000fd5b90506020020160208101906112c99190612683565b6001600160a01b03166001600160a01b03168152602001908152602001600020545b50806112f6816132bb565b91505061115f565b336113076115dc565b6001600160a01b03161461131a57600080fd5b601355565b336113286115dc565b6001600160a01b03161461133b57600080fd5b601054600f54111561135f5760405162461bcd60e51b8152600401610a0c90612a02565b6000611369610bcd565b905060015b8281116113c35760008051602061334383398151915261138e82846131f2565b8560405161139d9291906131db565b60405180910390a16113b184611113610bcd565b806113bb816132bb565b91505061136e565b50505050565b6013546113d4610bcd565b11156113f25760405162461bcd60e51b8152600401610a0c90612c33565b601254610100900460ff166114195760405162461bcd60e51b8152600401610a0c90613094565b3360009081526019602052604090205460ff166114485760405162461bcd60e51b8152600401610a0c90612a39565b601354611453610bcd565b106114705760405162461bcd60e51b8152600401610a0c90613166565b6016548111156114925760405162461bcd60e51b8152600401610a0c9061319d565b601654336000908152601a60205260409020546114b09083906131f2565b11156114ce5760405162461bcd60e51b8152600401610a0c9061312f565b80600c546114dc919061321e565b3410156114fb5760405162461bcd60e51b8152600401610a0c906130f8565b60125462010000900460ff16156115245760405162461bcd60e51b8152600401610a0c90612c06565b60005b81811015610db657336000908152601a6020526040812080546001929061154f9084906131f2565b90915550600080516020613343833981519152905061156c610bcd565b3360405161157b9291906131db565b60405180910390a16115943361158f610bcd565b611e69565b8061159e816132bb565b915050611527565b336115af6115dc565b6001600160a01b0316146115c257600080fd5b601655565b60125462010000900460ff1681565b60165481565b600a546001600160a01b031690565b336115f46115dc565b6001600160a01b03161461160757600080fd5b6012805462ff0000191662010000179055565b606060018054610a6f90613280565b60145481565b601254610100900460ff1681565b601354611648610bcd565b11156116665760405162461bcd60e51b8152600401610a0c90612c33565b61166e6115dc565b6001600160a01b0316336001600160a01b0316146116a85760125460ff166116a85760405162461bcd60e51b8152600401610a0c90612a70565b601354816116b4610bcd565b6116be91906131f2565b11156116dc5760405162461bcd60e51b8152600401610a0c90612fc7565b6013546116e7610bcd565b11156117055760405162461bcd60e51b8152600401610a0c906130cb565b60125462010000900460ff161561172e5760405162461bcd60e51b8152600401610a0c90612c06565b80600b5461173c919061321e565b34101561175b5760405162461bcd60e51b8152600401610a0c906130f8565b600d5481611767610bcd565b61177191906131f2565b141561178557680324e964b3eca80000600b555b600061178f610bcd565b905060015b828111610bc8576000805160206133438339815191526117b482846131f2565b336040516117c39291906131db565b60405180910390a16117d93361111383856131f2565b806117e3816132bb565b915050611794565b610db66117f6611bd3565b8383611f50565b336118066115dc565b6001600160a01b03161461181957600080fd5b60005b81811015610bc857600083838381811061184657634e487b7160e01b600052603260045260246000fd5b905060200201602081019061185b9190612683565b6001600160a01b031614156118825760405162461bcd60e51b8152600401610a0c90612e94565b6000601960008585858181106118a857634e487b7160e01b600052603260045260246000fd5b90506020020160208101906118bd9190612683565b6001600160a01b031681526020810191909152604001600020805460ff1916911515919091179055806118ef816132bb565b91505061181c565b600b5490565b6000336119086115dc565b6001600160a01b03161461191b57600080fd5b5060145490565b61193361192d611bd3565b83611c45565b61194f5760405162461bcd60e51b8152600401610a0c90612ff7565b6113c384848484611ff3565b6000610ed3610bcd565b606061197082611bb6565b61198c5760405162461bcd60e51b8152600401610a0c90612f37565b6000611996612026565b905060008151116119b657604051806020016040528060008152506119e1565b806119c084612035565b6040516020016119d1929190612920565b6040516020818303038152906040525b9392505050565b60155481565b600d5481565b600e5490565b6001600160a01b03918216600090815260056020908152604080832093909416825291909152205460ff1690565b33611a316115dc565b6001600160a01b031614611a4457600080fd5b601555565b600c5481565b33611a586115dc565b6001600160a01b031614611a6b57600080fd5b6012805460ff19168215151790556040517f58655b75d3df612fe99ead00dbf0812d415d35078fe06217a94c0818bb13967f90611aa99083906129e4565b60405180910390a150565b60125462010000900460ff1690565b611acb611bd3565b6001600160a01b0316611adc6115dc565b6001600160a01b031614611b025760405162461bcd60e51b8152600401610a0c90612ecb565b6001600160a01b038116611b285760405162461bcd60e51b8152600401610a0c90612b44565b611b3181611dfd565b50565b33611b3d6115dc565b6001600160a01b031614611b5057600080fd5b600b55565b33611b5e6115dc565b6001600160a01b031614611b7157600080fd5b600e55565b60006001600160e01b031982166380ac58cd60e01b1480611ba757506001600160e01b03198216635b5e139f60e01b145b80610a5a5750610a5a82612150565b6000908152600260205260409020546001600160a01b0316151590565b3390565b600081815260046020526040902080546001600160a01b0319166001600160a01b0384169081179091558190611c0c82610fb3565b6001600160a01b03167f8c5be1e5ebec7d5bd14f71427d1e84f3dd0314c0f7b2291e5b200ac8c7c3b92560405160405180910390a45050565b6000611c5082611bb6565b611c6c5760405162461bcd60e51b8152600401610a0c90612cd7565b6000611c7783610fb3565b9050806001600160a01b0316846001600160a01b03161480611c9e5750611c9e81856119fa565b80611cc25750836001600160a01b0316611cb784610af2565b6001600160a01b0316145b949350505050565b826001600160a01b0316611cdd82610fb3565b6001600160a01b031614611d035760405162461bcd60e51b8152600401610a0c90612b8a565b6001600160a01b038216611d295760405162461bcd60e51b8152600401610a0c90612c5c565b611d34838383612169565b611d3f600082611bd7565b6001600160a01b0383166000908152600360205260408120805460019290611d6890849061323d565b90915550506001600160a01b0382166000908152600360205260408120805460019290611d969084906131f2565b909155505060008181526002602052604080822080546001600160a01b0319166001600160a01b0386811691821790925591518493918716917fddf252ad1be2c89b69c2b068fc378daa952ba7f163c4a11628f55a4df523b3ef91a4610bc8838383610bc8565b600a80546001600160a01b038381166001600160a01b0319831681179093556040519116919082907f8be0079c531659141344cd1fd0a4f28419497f9722a3daafe3b4186f6b6457e090600090a35050565b610db68282604051806020016040528060008152506121f2565b6001600160a01b038216611e8f5760405162461bcd60e51b8152600401610a0c90612e13565b611e9881611bb6565b15611eb55760405162461bcd60e51b8152600401610a0c90612bcf565b611ec160008383612169565b6001600160a01b0382166000908152600360205260408120805460019290611eea9084906131f2565b909155505060008181526002602052604080822080546001600160a01b0319166001600160a01b03861690811790915590518392907fddf252ad1be2c89b69c2b068fc378daa952ba7f163c4a11628f55a4df523b3ef908290a4610db660008383610bc8565b816001600160a01b0316836001600160a01b03161415611f825760405162461bcd60e51b8152600401610a0c90612ca0565b6001600160a01b0383811660008181526005602090815260408083209487168084529490915290819020805460ff1916851515179055517f17307eab39ab6107e8899845ad3d59bd9653f200f220920489ca2b5937696c3190611fe69085906129e4565b60405180910390a3505050565b611ffe848484611cca565b61200a84848484612225565b6113c35760405162461bcd60e51b8152600401610a0c90612af2565b606060118054610a6f90613280565b60608161205a57506040805180820190915260018152600360fc1b6020820152610a30565b8160005b8115612084578061206e816132bb565b915061207d9050600a8361320a565b915061205e565b60008167ffffffffffffffff8111156120ad57634e487b7160e01b600052604160045260246000fd5b6040519080825280601f01601f1916602001820160405280156120d7576020820181803683370190505b5090505b8415611cc2576120ec60018361323d565b91506120f9600a866132d6565b6121049060306131f2565b60f81b81838151811061212757634e487b7160e01b600052603260045260246000fd5b60200101906001600160f81b031916908160001a905350612149600a8661320a565b94506120db565b6001600160e01b031981166301ffc9a760e01b14919050565b612174838383610bc8565b6001600160a01b0383166121905761218b81612340565b6121b3565b816001600160a01b0316836001600160a01b0316146121b3576121b38382612384565b6001600160a01b0382166121cf576121ca81612421565b610bc8565b826001600160a01b0316826001600160a01b031614610bc857610bc882826124fa565b6121fc8383611e69565b6122096000848484612225565b610bc85760405162461bcd60e51b8152600401610a0c90612af2565b6000612239846001600160a01b031661253e565b1561233557836001600160a01b031663150b7a02612255611bd3565b8786866040518563ffffffff1660e01b81526004016122779493929190612963565b602060405180830381600087803b15801561229157600080fd5b505af19250505080156122c1575060408051601f3d908101601f191682019092526122be9181019061287a565b60015b61231b573d8080156122ef576040519150601f19603f3d011682016040523d82523d6000602084013e6122f4565b606091505b5080516123135760405162461bcd60e51b8152600401610a0c90612af2565b805181602001fd5b6001600160e01b031916630a85bd0160e11b149050611cc2565b506001949350505050565b600880546000838152600960205260408120829055600182018355919091527ff3f7a9fe364faab93b216da50a3214154f22a0a2b415b23a84c8169e8b636ee30155565b6000600161239184610fee565b61239b919061323d565b6000838152600760205260409020549091508082146123ee576001600160a01b03841660009081526006602090815260408083208584528252808320548484528184208190558352600790915290208190555b5060009182526007602090815260408084208490556001600160a01b039094168352600681528383209183525290812055565b6008546000906124339060019061323d565b6000838152600960205260408120546008805493945090928490811061246957634e487b7160e01b600052603260045260246000fd5b90600052602060002001549050806008838154811061249857634e487b7160e01b600052603260045260246000fd5b60009182526020808320909101929092558281526009909152604080822084905585825281205560088054806124de57634e487b7160e01b600052603160045260246000fd5b6001900381819060005260206000200160009055905550505050565b600061250583610fee565b6001600160a01b039093166000908152600660209081526040808320868452825280832085905593825260079052919091209190915550565b6001600160a01b03163b151590565b82805461255990613280565b90600052602060002090601f01602090048101928261257b57600085556125c1565b82601f1061259457805160ff19168380011785556125c1565b828001600101855582156125c1579182015b828111156125c15782518255916020019190600101906125a6565b506125cd9291506125d1565b5090565b5b808211156125cd57600081556001016125d2565b600067ffffffffffffffff8084111561260157612601613316565b604051601f8501601f19908116603f0116810190828211818310171561262957612629613316565b8160405280935085815286868601111561264257600080fd5b858560208301376000602087830101525050509392505050565b80356001600160a01b0381168114610a3057600080fd5b80358015158114610a3057600080fd5b600060208284031215612694578081fd5b6119e18261265c565b600080604083850312156126af578081fd5b6126b88361265c565b91506126c66020840161265c565b90509250929050565b6000806000606084860312156126e3578081fd5b6126ec8461265c565b92506126fa6020850161265c565b9150604084013590509250925092565b6000806000806080858703121561271f578081fd5b6127288561265c565b93506127366020860161265c565b925060408501359150606085013567ffffffffffffffff811115612758578182fd5b8501601f81018713612768578182fd5b612777878235602084016125e6565b91505092959194509250565b60008060408385031215612795578182fd5b61279e8361265c565b91506126c660208401612673565b600080604083850312156127be578182fd5b6127c78361265c565b946020939093013593505050565b600080602083850312156127e7578182fd5b823567ffffffffffffffff808211156127fe578384fd5b818501915085601f830112612811578384fd5b81358181111561281f578485fd5b8660208083028501011115612832578485fd5b60209290920196919550909350505050565b600060208284031215612855578081fd5b6119e182612673565b60006020828403121561286f578081fd5b81356119e18161332c565b60006020828403121561288b578081fd5b81516119e18161332c565b6000602082840312156128a7578081fd5b813567ffffffffffffffff8111156128bd578182fd5b8201601f810184136128cd578182fd5b611cc2848235602084016125e6565b6000602082840312156128ed578081fd5b5035919050565b6000815180845261290c816020860160208601613254565b601f01601f19169290920160200192915050565b60008351612932818460208801613254565b835190830190612946818360208801613254565b01949350505050565b6001600160a01b0391909116815260200190565b6001600160a01b0385811682528416602082015260408101839052608060608201819052600090612996908301846128f4565b9695505050505050565b6020808252825182820181905260009190848201906040850190845b818110156129d8578351835292840192918401916001016129bc565b50909695505050505050565b901515815260200190565b6000602082526119e160208301846128f4565b6020808252601b908201527f4d61782052657365727665732074616b656e20616c7265616479210000000000604082015260600190565b6020808252601d908201527f596f7520617265206e6f74206f6e2074686520416c6c6f77204c697374000000604082015260600190565b6020808252601d908201527f53616c65206973206e6f74206163746976652063757272656e746c792e000000604082015260600190565b6020808252602b908201527f455243373231456e756d657261626c653a206f776e657220696e646578206f7560408201526a74206f6620626f756e647360a81b606082015260800190565b60208082526032908201527f4552433732313a207472616e7366657220746f206e6f6e20455243373231526560408201527131b2b4bb32b91034b6b83632b6b2b73a32b960711b606082015260800190565b60208082526026908201527f4f776e61626c653a206e6577206f776e657220697320746865207a65726f206160408201526564647265737360d01b606082015260800190565b60208082526025908201527f4552433732313a207472616e736665722066726f6d20696e636f72726563742060408201526437bbb732b960d91b606082015260800190565b6020808252601c908201527f4552433732313a20746f6b656e20616c7265616479206d696e74656400000000604082015260600190565b60208082526013908201527226b4b73a1021b637b9b2b2102337b932bb32b960691b604082015260600190565b6020808252600f908201526e29b0b632903430b99032b73232b21760891b604082015260600190565b60208082526024908201527f4552433732313a207472616e7366657220746f20746865207a65726f206164646040820152637265737360e01b606082015260800190565b60208082526019908201527f4552433732313a20617070726f766520746f2063616c6c657200000000000000604082015260600190565b6020808252602c908201527f4552433732313a206f70657261746f7220717565727920666f72206e6f6e657860408201526b34b9ba32b73a103a37b5b2b760a11b606082015260800190565b60208082526038908201527f4552433732313a20617070726f76652063616c6c6572206973206e6f74206f7760408201527f6e6572206e6f7220617070726f76656420666f7220616c6c0000000000000000606082015260800190565b6020808252602a908201527f4552433732313a2062616c616e636520717565727920666f7220746865207a65604082015269726f206164647265737360b01b606082015260800190565b60208082526029908201527f4552433732313a206f776e657220717565727920666f72206e6f6e657869737460408201526832b73a103a37b5b2b760b91b606082015260800190565b6020808252818101527f4552433732313a206d696e7420746f20746865207a65726f2061646472657373604082015260600190565b6020808252602c908201527f4552433732313a20617070726f76656420717565727920666f72206e6f6e657860408201526b34b9ba32b73a103a37b5b2b760a11b606082015260800190565b60208082526018908201527f43616e2774206164642061206e756c6c20616464726573730000000000000000604082015260600190565b6020808252818101527f4f776e61626c653a2063616c6c6572206973206e6f7420746865206f776e6572604082015260600190565b6020808252601e908201527f5a65726f2061646472657373206e6f74206f6e20416c6c6f77204c6973740000604082015260600190565b6020808252602f908201527f4552433732314d657461646174613a2055524920717565727920666f72206e6f60408201526e3732bc34b9ba32b73a103a37b5b2b760891b606082015260800190565b60208082526021908201527f4552433732313a20617070726f76616c20746f2063757272656e74206f776e656040820152603960f91b606082015260800190565b6020808252601690820152752a37ba30b61039bab838363c9032bc31b2b2b232b21760511b604082015260600190565b60208082526031908201527f4552433732313a207472616e736665722063616c6c6572206973206e6f74206f6040820152701ddb995c881b9bdc88185c1c1c9bdd9959607a1b606082015260800190565b6020808252602c908201527f455243373231456e756d657261626c653a20676c6f62616c20696e646578206f60408201526b7574206f6620626f756e647360a01b606082015260800190565b6020808252601b908201527f5072652053616c65204d696e74206973206e6f74206163746976650000000000604082015260600190565b6020808252601390820152722a37ba30b61039bab838363c9039b832b73a1760691b604082015260600190565b6020808252601b908201527f496e7375666669656e742045544820616d6f756e742073656e742e0000000000604082015260600190565b6020808252601c908201527f50757263686173652065786365656473206d617820616c6c6f77656400000000604082015260600190565b6020808252601b908201527f416c6c20746f6b656e732068617665206265656e206d696e7465640000000000604082015260600190565b6020808252818101527f43616e6e6f742070757263686173652074686973206d616e7920746f6b656e73604082015260600190565b90815260200190565b9182526001600160a01b0316602082015260400190565b60008219821115613205576132056132ea565b500190565b60008261321957613219613300565b500490565b6000816000190483118215151615613238576132386132ea565b500290565b60008282101561324f5761324f6132ea565b500390565b60005b8381101561326f578181015183820152602001613257565b838111156113c35750506000910152565b60028104600182168061329457607f821691505b602082108114156132b557634e487b7160e01b600052602260045260246000fd5b50919050565b60006000198214156132cf576132cf6132ea565b5060010190565b6000826132e5576132e5613300565b500690565b634e487b7160e01b600052601160045260246000fd5b634e487b7160e01b600052601260045260246000fd5b634e487b7160e01b600052604160045260246000fd5b6001600160e01b031981168114611b3157600080fdfe55f284809f4c5b7377fbe62f2feeb9686e3834dcae5f3ca955140fe6547cd355a2646970667358221220a551ce3b358faf8a0e69e2fc32f9b88d5720760e9c02e8c64684f201ad0ae03a64736f6c6343000801003343656c65627269756d2047656e6573697320436f6c6c656374696f6e20416c7068613a204a656e6e79204d63436172746879",
  "immutableReferences": {},
  "source": "// SPDX-License-Identifier: MIT\n// Made by: NFT Stack\n//          https://nftstack.info\n//\n\npragma solidity ^0.8.1;\n\nimport \"@openzeppelin/contracts/token/ERC721/extensions/ERC721Enumerable.sol\";\nimport \"@openzeppelin/contracts/access/Ownable.sol\";\n\ncontract Celebrium is ERC721Enumerable, Ownable {\n  uint256 public mintPrice = 42 ether;\n  uint256 public preSaleMintPrice = 42 ether;\n\n  uint256 public mintBreakPoint = 140;\n\n  uint256 private reserveAtATime = 50;\n  uint256 private reservedCount = 0;\n  uint256 private maxReserveCount = 50;\n\n  string _baseTokenURI;\n\n  bool public isMintActive = false;\n  bool public isPreSaleMintActive = false;\n  bool public isClosedMintForever = false;\n\n  uint256 public maximumMintSupply = 500;\n  uint256 public maximumAllowedTokensPerPurchase = 500;\n  uint256 public maximumAllowedTokensPerWallet = 500;\n  uint256 public allowListMaxMint = 500;\n\n  address private OtherAddress1 = 0x625b0a3F8cEe1e03760d7fc10Aa9336FBDcF0f86;\n  address private OtherAddress2 = 0x86D7a3a03F00a51fEE2D54C6231Ed38D9820CBe4;\n\n  mapping(address => bool) private _allowList;\n  mapping(address => uint256) private _allowListClaimed;\n\n  event AssetMinted(uint256 tokenId, address sender);\n  event SaleActivation(bool isMintActive);\n\n  constructor(string memory baseURI) ERC721(\"Celebrium Genesis Collection Alpha: Jenny McCarthy\", \"CELEBRIUM\") {\n    setBaseURI(baseURI);\n  }\n\n  modifier saleIsOpen {\n    require(totalSupply() <= maximumMintSupply, \"Sale has ended.\");\n    _;\n  }\n\n  modifier onlyAuthorized() {\n    require(owner() == msg.sender);\n    _;\n  }\n\n  function setMaximumAllowedTokens(uint256 _count) public onlyAuthorized {\n    maximumAllowedTokensPerPurchase = _count;\n  }\n\n  function setMaximumAllowedTokensPerWallet(uint256 _count) public onlyAuthorized {\n    maximumAllowedTokensPerWallet = _count;\n  }\n\n  function setMintActive(bool val) public onlyAuthorized {\n    isMintActive = val;\n    emit SaleActivation(val);\n  }\n\n  function setMaxMintSupply(uint256 maxMintSupply) external  onlyAuthorized {\n    maximumMintSupply = maxMintSupply;\n  }\n\n  function setIsPreSaleMintActive(bool _isPreSaleMintActive) external onlyAuthorized {\n    isPreSaleMintActive = _isPreSaleMintActive;\n  }\n\n  function setAllowListMaxMint(uint256 maxMint) external  onlyAuthorized {\n    allowListMaxMint = maxMint;\n  }\n\n  function addToAllowList(address[] calldata addresses) external onlyAuthorized {\n    for (uint256 i = 0; i < addresses.length; i++) {\n      require(addresses[i] != address(0), \"Can't add a null address\");\n      _allowList[addresses[i]] = true;\n      _allowListClaimed[addresses[i]] > 0 ? _allowListClaimed[addresses[i]] : 0;\n    }\n  }\n\n  function checkIfOnAllowList(address addr) external view returns (bool) {\n    return _allowList[addr];\n  }\n\n  function removeFromAllowList(address[] calldata addresses) external onlyAuthorized {\n    for (uint256 i = 0; i < addresses.length; i++) {\n      require(addresses[i] != address(0), \"Can't add a null address\");\n      _allowList[addresses[i]] = false;\n    }\n  }\n\n  function allowListClaimedBy(address owner) external view returns (uint256){\n    require(owner != address(0), 'Zero address not on Allow List');\n    return _allowListClaimed[owner];\n  }\n\n  function setReserveAtATime(uint256 val) public onlyAuthorized {\n    reserveAtATime = val;\n  }\n\n  function setMaxReserve(uint256 val) public onlyAuthorized {\n    maxReserveCount = val;\n  }\n\n  function setMintPrice(uint256 _price) public onlyAuthorized {\n    mintPrice = _price;\n  }\n\n  function setPreSaleMintPrice(uint256 _price) public onlyAuthorized {\n    preSaleMintPrice = _price;\n  }\n\n  function setBaseURI(string memory baseURI) public onlyAuthorized {\n    _baseTokenURI = baseURI;\n  }\n\n  function getMaximumAllowedTokens() public view onlyAuthorized returns (uint256) {\n    return maximumAllowedTokensPerPurchase;\n  }\n\n  function getMintPrice() external view returns (uint256) {\n    return mintPrice;\n  }\n\n  function getPreSaleMintPrice() external view returns (uint256) {\n    return preSaleMintPrice;\n  }\n\n  function getIsClosedMintForever() external view returns (bool) {\n    return isClosedMintForever;\n  }\n\n  function setIsClosedMintForever() external onlyAuthorized {\n    isClosedMintForever = true;\n  }\n\n  function getReserveAtATime() external view returns (uint256) {\n    return reserveAtATime;\n  }\n\n  function getTotalSupply() external view returns (uint256) {\n    return totalSupply();\n  }\n\n  function getContractOwner() public view returns (address) {\n    return owner();\n  }\n\n  function _baseURI() internal view virtual override returns (string memory) {\n    return _baseTokenURI;\n  }\n\n  function reserveNft() public onlyAuthorized {\n    require(reservedCount <= maxReserveCount, \"Max Reserves taken already!\");\n    uint256 supply = totalSupply();\n    uint256 i;\n\n    for (i = 1; i <= reserveAtATime; i++) {\n      emit AssetMinted(supply + i, msg.sender);\n      _safeMint(msg.sender, supply + i);\n      reservedCount++;\n    }\n  }\n\n  function reserveToCustomWallet(address _walletAddress, uint256 _count) public onlyAuthorized {\n    require(reservedCount <= maxReserveCount, \"Max Reserves taken already!\");\n\n    uint256 supply = totalSupply();\n    uint256 i;\n\n    for (i = 1; i <= _count; i++) {\n      emit AssetMinted(supply + i, _walletAddress);\n      _safeMint(_walletAddress, totalSupply());\n    }\n  }\n\n  function mint(uint256 _count) public payable saleIsOpen {\n    if (msg.sender != owner()) {\n      require(isMintActive, \"Sale is not active currently.\");\n    }\n\n    require(totalSupply() + _count <= maximumMintSupply, \"Total supply exceeded.\");\n    require(totalSupply() <= maximumMintSupply, \"Total supply spent.\");\n    require(!isClosedMintForever, \"Mint Closed Forever\");\n\n    require(msg.value >= mintPrice * _count, \"Insuffient ETH amount sent.\");\n\n    if(totalSupply() + _count == mintBreakPoint) {\n      mintPrice = 58 ether;\n    }\n\n    uint256 supply = totalSupply();\n    uint256 i;\n\n    for (i = 1; i <= _count; i++) {\n      emit AssetMinted(supply + i, msg.sender);\n      _safeMint(msg.sender, supply + i);\n    }\n  }\n\n  function preSaleMint(uint256 _count) public payable saleIsOpen {\n    require(isPreSaleMintActive, 'Pre Sale Mint is not active');\n    require(_allowList[msg.sender], 'You are not on the Allow List');\n    require(totalSupply() < maximumMintSupply, 'All tokens have been minted');\n    require(_count <= allowListMaxMint, 'Cannot purchase this many tokens');\n    require(_allowListClaimed[msg.sender] + _count <= allowListMaxMint, 'Purchase exceeds max allowed');\n    require(msg.value >= preSaleMintPrice * _count, 'Insuffient ETH amount sent.');\n    require(!isClosedMintForever, 'Mint Closed Forever');\n\n    for (uint256 i = 0; i < _count; i++) {\n      _allowListClaimed[msg.sender] += 1;\n      emit AssetMinted(totalSupply(), msg.sender);\n      _mint(msg.sender, totalSupply());\n    }\n  }\n\n  function walletOfOwner(address _owner) external view returns(uint256[] memory) {\n    uint tokenCount = balanceOf(_owner);\n    uint256[] memory tokensId = new uint256[](tokenCount);\n\n    for(uint i = 0; i < tokenCount; i++){\n      tokensId[i] = tokenOfOwnerByIndex(_owner, i);\n    }\n    return tokensId;\n  }\n\n  function withdraw() external onlyAuthorized {\n    uint balance = address(this).balance;\n    payable(OtherAddress1).transfer(balance * 8000 / 10000);\n    payable(OtherAddress2).transfer(balance * 2000 / 10000);\n    payable(owner()).transfer(balance * 0 / 10000);\n  }\n}",
  "sourcePath": "/Users/nftstack/Documents/GitHub/celebrium/contracts/Celebrium.sol",
  "compiler": {
    "name": "solc",
    "version": "0.8.1+commit.df193b15.Emscripten.clang"
  },
  "schemaVersion": "3.4.7",
  "updatedAt": "2022-06-29T20:18:12.453Z",
  "devdoc": {
    "kind": "dev",
    "methods": {
      "approve(address,uint256)": {
        "details": "See {IERC721-approve}."
      },
      "balanceOf(address)": {
        "details": "See {IERC721-balanceOf}."
      },
      "getApproved(uint256)": {
        "details": "See {IERC721-getApproved}."
      },
      "isApprovedForAll(address,address)": {
        "details": "See {IERC721-isApprovedForAll}."
      },
      "name()": {
        "details": "See {IERC721Metadata-name}."
      },
      "owner()": {
        "details": "Returns the address of the current owner."
      },
      "ownerOf(uint256)": {
        "details": "See {IERC721-ownerOf}."
      },
      "renounceOwnership()": {
        "details": "Leaves the contract without owner. It will not be possible to call `onlyOwner` functions anymore. Can only be called by the current owner. NOTE: Renouncing ownership will leave the contract without an owner, thereby removing any functionality that is only available to the owner."
      },
      "safeTransferFrom(address,address,uint256)": {
        "details": "See {IERC721-safeTransferFrom}."
      },
      "safeTransferFrom(address,address,uint256,bytes)": {
        "details": "See {IERC721-safeTransferFrom}."
      },
      "setApprovalForAll(address,bool)": {
        "details": "See {IERC721-setApprovalForAll}."
      },
      "supportsInterface(bytes4)": {
        "details": "See {IERC165-supportsInterface}."
      },
      "symbol()": {
        "details": "See {IERC721Metadata-symbol}."
      },
      "tokenByIndex(uint256)": {
        "details": "See {IERC721Enumerable-tokenByIndex}."
      },
      "tokenOfOwnerByIndex(address,uint256)": {
        "details": "See {IERC721Enumerable-tokenOfOwnerByIndex}."
      },
      "tokenURI(uint256)": {
        "details": "See {IERC721Metadata-tokenURI}."
      },
      "totalSupply()": {
        "details": "See {IERC721Enumerable-totalSupply}."
      },
      "transferFrom(address,address,uint256)": {
        "details": "See {IERC721-transferFrom}."
      },
      "transferOwnership(address)": {
        "details": "Transfers ownership of the contract to a new account (`newOwner`). Can only be called by the current owner."
      }
    },
    "version": 1
  },
  "userdoc": {
    "kind": "user",
    "methods": {},
    "version": 1
  }
}